{"abi":[{"type":"function","name":"createVault","inputs":[{"name":"operator","type":"address","internalType":"address"},{"name":"guardian","type":"address","internalType":"address"},{"name":"paymentToken","type":"address","internalType":"address"},{"name":"budgetCeiling","type":"uint256","internalType":"uint256"},{"name":"perTransactionCap","type":"uint256","internalType":"uint256"},{"name":"dailyVelocityCap","type":"uint256","internalType":"uint256"},{"name":"duration","type":"uint256","internalType":"uint256"},{"name":"initialVendors","type":"address[]","internalType":"address[]"},{"name":"vendorAddTimelock","type":"uint256","internalType":"uint256"}],"outputs":[{"name":"vault","type":"address","internalType":"address"}],"stateMutability":"nonpayable"},{"type":"function","name":"getVaultCount","inputs":[{"name":"owner","type":"address","internalType":"address"}],"outputs":[{"name":"","type":"uint256","internalType":"uint256"}],"stateMutability":"view"},{"type":"function","name":"getVaultOwner","inputs":[{"name":"vault","type":"address","internalType":"address"}],"outputs":[{"name":"","type":"address","internalType":"address"}],"stateMutability":"view"},{"type":"function","name":"getVaultsByOwner","inputs":[{"name":"owner","type":"address","internalType":"address"}],"outputs":[{"name":"","type":"address[]","internalType":"address[]"}],"stateMutability":"view"},{"type":"function","name":"isVault","inputs":[{"name":"addr","type":"address","internalType":"address"}],"outputs":[{"name":"","type":"bool","internalType":"bool"}],"stateMutability":"view"},{"type":"event","name":"VaultCreated","inputs":[{"name":"owner","type":"address","indexed":true,"internalType":"address"},{"name":"vault","type":"address","indexed":true,"internalType":"address"},{"name":"operator","type":"address","indexed":true,"internalType":"address"},{"name":"budgetCeiling","type":"uint256","indexed":false,"internalType":"uint256"}],"anonymous":false},{"type":"error","name":"ZeroAddress","inputs":[]}],"bytecode":{"object":"0x608060405234801561001057600080fd5b506126a5806100206000396000f3fe60806040523480156200001157600080fd5b50600436106200005e5760003560e01c806350b0adce1462000063578063652b9b41146200009757806377e1296e14620000d9578063894f4f711462000114578063ac8187111462000143575b600080fd5b6200007a6200007436600462000454565b62000169565b6040516001600160a01b0390911681526020015b60405180910390f35b620000c8620000a836600462000538565b6001600160a01b0390811660009081526001602052604090205416151590565b60405190151581526020016200008e565b62000105620000ea36600462000538565b6001600160a01b031660009081526002602052604090205490565b6040519081526020016200008e565b6200007a6200012536600462000538565b6001600160a01b039081166000908152600160205260409020541690565b6200015a6200015436600462000538565b620003b3565b6040516200008e91906200055d565b60006001600160a01b038b1615806200018957506001600160a01b038916155b15620001a85760405163d92e233d60e01b815260040160405180910390fd5b6040805160a08101825289815260208082018a905281830189905260608083018990526001600160a01b038d16608084015233600081815260028452858120548651948501929092529483015291929101604051602081830303815290604052805190602001209050600081338f8f868b8b8b604051620002299062000429565b6200023b9796959493929190620005ac565b8190604051809103906000f59050801580156200025c573d6000803e3d6000fd5b509050809350600080336001600160a01b03166001600160a01b03168152602001908152602001600020849080600181540180825580915050600190039060005260206000200160009091909190916101000a8154816001600160a01b0302191690836001600160a01b031602179055503360016000866001600160a01b03166001600160a01b0316815260200190815260200160002060006101000a8154816001600160a01b0302191690836001600160a01b0316021790555060026000336001600160a01b03166001600160a01b0316815260200190815260200160002060008154600101919050819055508d6001600160a01b0316846001600160a01b0316336001600160a01b03167f4dda9a6d0ba03769e9813c47681795a7210f951e6ef31e64772e13b9ea0f14068e6040516200039a91815260200190565b60405180910390a45050509a9950505050505050505050565b6001600160a01b038116600090815260208181526040918290208054835181840281018401909452808452606093928301828280156200041d57602002820191906000526020600020905b81546001600160a01b03168152600190910190602001808311620003fe575b50505050509050919050565b61200f806200066183390190565b80356001600160a01b03811681146200044f57600080fd5b919050565b6000806000806000806000806000806101208b8d0312156200047557600080fd5b620004808b62000437565b99506200049060208c0162000437565b9850620004a060408c0162000437565b975060608b0135965060808b0135955060a08b0135945060c08b0135935060e08b013567ffffffffffffffff80821115620004da57600080fd5b818d0191508d601f830112620004ef57600080fd5b813581811115620004ff57600080fd5b8e60208260051b85010111156200051557600080fd5b6020830195508094505050506101008b013590509295989b9194979a5092959850565b6000602082840312156200054b57600080fd5b620005568262000437565b9392505050565b6020808252825182820181905260009190848201906040850190845b81811015620005a05783516001600160a01b03168352928401929184019160010162000579565b50909695505050505050565b600061014080830160018060a01b03808c1685526020818c166020870152818b1660408701528951606087015260208a0151608087015260408a015160a087015260608a015160c08701528160808b01511660e0870152836101008701528293508783526101608601935088925060005b88811015620006465782620006328562000437565b16855293810193928101926001016200061d565b50505050610120929092019290925297965050505050505056fe6101406040523480156200001257600080fd5b506040516200200f3803806200200f833981016040819052620000359162000395565b60016000556001600160a01b03861615806200005857506001600160a01b038516155b806200006f575060808301516001600160a01b0316155b156200008e5760405163d92e233d60e01b815260040160405180910390fd5b8251600003620000b45760405160016268479f60e01b0319815260040160405180910390fd5b60208301511580620000c857506040830151155b80620000d657506060830151155b15620000f5576040516312159fa360e11b815260040160405180910390fd5b6001600160a01b03868116608090815286821660a052840151811660c052835160e052606084015161010052610120829052600180546001600160a01b031916918616919091179055602083015160025560408301516003556004805460ff19169055815160005b818110156200021e5760008482815181106200017d576200017d62000475565b6020026020010151905060006001600160a01b0316816001600160a01b031614158015620001c457506001600160a01b0381166000908152600a602052604090205460ff16155b1562000214576001600160a01b0381166000818152600a6020526040808220805460ff19166001179055517f187ea8b96b8ec4b770e46a85aa7421402f105827e5d2bb0705259f060c6043cb9190a25b506001016200015d565b5060808401518451604080516001600160a01b038981168252938416602082015290810191909152818816918916907f3e0baa5672e0b81e65c1f0d04bb050cba16bc68a2d4c662544f5f2f2963ee2ba9060600160405180910390a3505050505050506200048b565b80516001600160a01b03811681146200029f57600080fd5b919050565b634e487b7160e01b600052604160045260246000fd5b60405160a081016001600160401b0381118282101715620002df57620002df620002a4565b60405290565b600082601f830112620002f757600080fd5b815160206001600160401b0380831115620003165762000316620002a4565b8260051b604051601f19603f830116810181811084821117156200033e576200033e620002a4565b60405293845260208187018101949081019250878511156200035f57600080fd5b6020870191505b848210156200038a576200037a8262000287565b8352918301919083019062000366565b979650505050505050565b600080600080600080868803610140811215620003b157600080fd5b620003bc8862000287565b9650620003cc6020890162000287565b9550620003dc6040890162000287565b945060a0605f1982011215620003f157600080fd5b50620003fc620002ba565b606088015181526080880151602082015260a0880151604082015260c088015160608201526200042f60e0890162000287565b60808201526101008801519093506001600160401b038111156200045257600080fd5b6200046089828a01620002e5565b92505061012087015190509295509295509295565b634e487b7160e01b600052603260045260246000fd5b60805160a05160c05160e0516101005161012051611a5b620005b4600039600081816103540152610b280152600081816108d3015281816109f70152818161132e015261170101526000818161051e0152818161066b015281816106db015281816108320152818161086d015281816112f8015261176d01526000818161060e015281816107bb01528181611164015281816111a4015281816113540152818161156b015261160e0152600081816103ee015261049d0152600081816102bd0152818161071d0152818161091f01528181610a4d01528181610bb501528181610c7501528181610d4901528181610e1e01528181610ede01528181610fa60152818161105f0152818161138f015281816114c50152818161163001526116570152611a5b6000f3fe608060405234801561001057600080fd5b50600436106101a95760003560e01c80638456cb59116100f9578063b937771711610097578063d025314d11610071578063d025314d146103d9578063e7f43c68146103ec578063ee38db9514610412578063fc34d3a61461041a57600080fd5b8063b937771714610352578063ca1d209d14610378578063ce1e46261461038b57600080fd5b806391702468116100d35780639170246814610308578063a75b87d214610331578063adaa139914610342578063b6549f751461034a57600080fd5b80638456cb59146102b3578063893d20e8146102bb5780638a0dac4a146102f557600080fd5b8063279478ba116101665780633270a63b116101405780633270a63b146102725780633f4ba83a1461028557806354b622c91461028d5780637919599b146102a057600080fd5b8063279478ba1461023f578063288d2f23146102475780632f13b60c1461026a57600080fd5b806309b32a98146101ae5780630dfe0981146101d65780630f15f4c0146101f95780631865c57d146102035780631be393b71461021657806325cb5bc014610229575b600080fd5b6101c16101bc366004611925565b610446565b60405190151581526020015b60405180910390f35b6101de6106ce565b604080519384526020840192909252908201526060016101cd565b610201610712565b005b60045460ff166040516101cd919061196e565b610201610224366004611996565b610914565b6102316109e9565b6040519081526020016101cd565b610231610a2e565b6101c1610255366004611996565b6000908152600c602052604090205460ff1690565b6101c1610a38565b6102016102803660046119af565b610a42565b610201610baa565b61020161029b3660046119af565b610c6a565b6102016102ae366004611996565b610d3e565b610201610e13565b7f00000000000000000000000000000000000000000000000000000000000000005b6040516001600160a01b0390911681526020016101cd565b6102016103033660046119af565b610ed3565b6102316103163660046119af565b6001600160a01b03166000908152600b602052604090205490565b6001546001600160a01b03166102dd565b600554610231565b610201610f9b565b7f0000000000000000000000000000000000000000000000000000000000000000610231565b610201610386366004611996565b611054565b6103936112b0565b6040516101cd9190815181526020808301519082015260408083015190820152606080830151908201526080918201516001600160a01b03169181019190915260a00190565b6102016103e73660046119af565b611384565b7f00000000000000000000000000000000000000000000000000000000000000006102dd565b6102016114ba565b6101c16104283660046119af565b6001600160a01b03166000908152600a602052604090205460ff1690565b60006104506116c5565b60026004805460ff169081111561046957610469611958565b14158061047957506104796116ef565b156104925761048b8484846001611734565b90506106bd565b336001600160a01b037f000000000000000000000000000000000000000000000000000000000000000016146104cf5761048b8484846002611734565b6001600160a01b0384166000908152600a602052604090205460ff166104fc5761048b8484846003611734565b82158061050a575060025483115b1561051c5761048b8484846004611734565b7f00000000000000000000000000000000000000000000000000000000000000008360065461054b91906119e0565b111561055e5761048b8484846005611734565b60006105686117ce565b60035490915061057885836119e0565b11156105935761058b8585856006611734565b9150506106bd565b6000838152600c602052604090205460ff16156105b75761058b8585856007611734565b6000838152600c60205260408120805460ff19166001179055600680548692906105e29084906119e0565b90915550506007805460010190556105fa84826119e0565b600955426008556106356001600160a01b037f00000000000000000000000000000000000000000000000000000000000000001686866117f5565b82856001600160a01b03167f325baefd2ac82e2141e4977409453a852976a8f11bcd9bd9f6114c71fb40218286426006546006547f000000000000000000000000000000000000000000000000000000000000000061069491906119f9565b60408051948552602085019390935291830152606082015260800160405180910390a360019150505b6106c76001600055565b9392505050565b60008060006006546006547f000000000000000000000000000000000000000000000000000000000000000061070491906119f9565b600754925092509250909192565b336001600160a01b037f0000000000000000000000000000000000000000000000000000000000000000161461075b576040516330cd747160e01b815260040160405180910390fd5b60016004805460ff169081111561077457610774611958565b146107a3576004805460405163e37d4aeb60e01b815261079a9260ff909216910161196e565b60405180910390fd5b6040516370a0823160e01b81523060048201526000907f00000000000000000000000000000000000000000000000000000000000000006001600160a01b0316906370a0823190602401602060405180830381865afa15801561080a573d6000803e3d6000fd5b505050506040513d601f19601f8201168201806040525081019061082e9190611a0c565b90507f000000000000000000000000000000000000000000000000000000000000000081101561089957604051622f087f60ea1b8152600481018290527f0000000000000000000000000000000000000000000000000000000000000000602482015260440161079a565b6004805460ff191660021790554260058190557f4867887a5b0bebacccb6e4c9c656b3a6b2fe478e226ea1fa5230d9b4bdabc26e906108f87f0000000000000000000000000000000000000000000000000000000000000000826119e0565b604080519283526020830191909152015b60405180910390a150565b336001600160a01b037f0000000000000000000000000000000000000000000000000000000000000000161461095d576040516330cd747160e01b815260040160405180910390fd5b6004805460ff168181111561097457610974611958565b036109925760405163905e710760e01b815260040160405180910390fd5b60035481106109b457604051632f029aa160e21b815260040160405180910390fd5b60038190556040518181527f1e3d644a723190d6c3500641c0a6c62fda9afbbdbda7f89de4da82f2585135d990602001610909565b6000600554600014610a28577f0000000000000000000000000000000000000000000000000000000000000000600554610a2391906119e0565b905090565b50600090565b6000610a236117ce565b6000610a236116ef565b336001600160a01b037f00000000000000000000000000000000000000000000000000000000000000001614610a8b576040516330cd747160e01b815260040160405180910390fd5b6004805460ff1681811115610aa257610aa2611958565b03610ac05760405163905e710760e01b815260040160405180910390fd5b6001600160a01b038116610ae75760405163d92e233d60e01b815260040160405180910390fd5b6001600160a01b0381166000908152600a602052604090205460ff1615610b215760405163124f30f760e21b815260040160405180910390fd5b6000610b4d7f0000000000000000000000000000000000000000000000000000000000000000426119e0565b6001600160a01b0383166000818152600b60205260409081902083905551919250907f22e0df9fcacd692b17053e2415b7fe3ad2164c92042d7307e3c195482dfabc7e90610b9e9084815260200190565b60405180910390a25050565b336001600160a01b037f00000000000000000000000000000000000000000000000000000000000000001614610bf3576040516330cd747160e01b815260040160405180910390fd5b60036004805460ff1690811115610c0c57610c0c611958565b14610c32576004805460405163e37d4aeb60e01b815261079a9260ff909216910161196e565b6004805460ff191660021790556040517fa45f47fdea8a1efdd9029a5691c7f759c32b7c698632b563573e155625d1693390600090a1565b336001600160a01b037f00000000000000000000000000000000000000000000000000000000000000001614610cb3576040516330cd747160e01b815260040160405180910390fd5b6004805460ff1681811115610cca57610cca611958565b03610ce85760405163905e710760e01b815260040160405180910390fd5b6001600160a01b0381166000818152600a60209081526040808320805460ff19169055600b909152808220829055517fceb8b5081e60cbeafb2db1ed5f2ef32309a5ba1d0d74ac127be270181f297e589190a250565b336001600160a01b037f00000000000000000000000000000000000000000000000000000000000000001614610d87576040516330cd747160e01b815260040160405180910390fd5b6004805460ff1681811115610d9e57610d9e611958565b03610dbc5760405163905e710760e01b815260040160405180910390fd5b6002548110610dde57604051632f029aa160e21b815260040160405180910390fd5b60028190556040518181527f1d99d5d078065a3a79de77da53aae049116200db01a8b2b7efb23b47a5a22fe390602001610909565b336001600160a01b037f00000000000000000000000000000000000000000000000000000000000000001614610e5c576040516330cd747160e01b815260040160405180910390fd5b60026004805460ff1690811115610e7557610e75611958565b14610e9b576004805460405163e37d4aeb60e01b815261079a9260ff909216910161196e565b6004805460ff191660031790556040517f9e87fac88ff661f02d44f95383c817fece4bce600a3dab7a54406878b965e75290600090a1565b336001600160a01b037f00000000000000000000000000000000000000000000000000000000000000001614610f1c576040516330cd747160e01b815260040160405180910390fd5b6004805460ff1681811115610f3357610f33611958565b03610f515760405163905e710760e01b815260040160405180910390fd5b600180546001600160a01b0319166001600160a01b0383169081179091556040517fe6c09ffe4572dc9ceaa5ddde4ae41befa655d6fdfe8052077af0970f700e942e90600090a250565b336001600160a01b037f00000000000000000000000000000000000000000000000000000000000000001614801590610fdf57506001546001600160a01b03163314155b15610ffd5760405163ea8e4eb560e01b815260040160405180910390fd5b6004805460ff168181111561101457611014611958565b0361101b57565b6004805460ff19168117905560405133907fb6fa8b8bd5eab60f292eca876e3ef90722275b785309d84b1de113ce0b8c4e7490600090a2565b336001600160a01b037f0000000000000000000000000000000000000000000000000000000000000000161461109d576040516330cd747160e01b815260040160405180910390fd5b6004805460ff16818111156110b4576110b4611958565b036110d25760405163905e710760e01b815260040160405180910390fd5b806000036110f357604051631f2a200560e01b815260040160405180910390fd5b60006004805460ff169081111561110c5761110c611958565b14158015611131575060016004805460ff169081111561112e5761112e611958565b14155b15611157576004805460405163e37d4aeb60e01b815261079a9260ff909216910161196e565b61118c6001600160a01b037f000000000000000000000000000000000000000000000000000000000000000016333084611859565b6040516370a0823160e01b81523060048201526000907f00000000000000000000000000000000000000000000000000000000000000006001600160a01b0316906370a0823190602401602060405180830381865afa1580156111f3573d6000803e3d6000fd5b505050506040513d601f19601f820116820180604052508101906112179190611a0c565b905060006004805460ff169081111561123257611232611958565b03611278576004805460ff191660011790556040518181527fc4c14883ae9fd8e26d5d59e3485ed29fd126d781d7e498a4ca5c54c8268e49369060200160405180910390a15b604080518381526020810183905233917f73a19dd210f1a7f902193214c0ee91dd35ee5b4d920cba8d519eca65a7b488ca9101610b9e565b6112eb6040518060a001604052806000815260200160008152602001600081526020016000815260200160006001600160a01b031681525090565b6040518060a001604052807f00000000000000000000000000000000000000000000000000000000000000008152602001600254815260200160035481526020017f000000000000000000000000000000000000000000000000000000000000000081526020017f00000000000000000000000000000000000000000000000000000000000000006001600160a01b0316815250905090565b336001600160a01b037f000000000000000000000000000000000000000000000000000000000000000016146113cd576040516330cd747160e01b815260040160405180910390fd5b6004805460ff16818111156113e4576113e4611958565b036114025760405163905e710760e01b815260040160405180910390fd5b6001600160a01b0381166000908152600b60205260408120549081900361143c5760405163050cf37960e21b815260040160405180910390fd5b8042101561146057604051634086279560e11b81526004810182905260240161079a565b6001600160a01b0382166000818152600b60209081526040808320839055600a909152808220805460ff19166001179055517f187ea8b96b8ec4b770e46a85aa7421402f105827e5d2bb0705259f060c6043cb9190a25050565b336001600160a01b037f00000000000000000000000000000000000000000000000000000000000000001614611503576040516330cd747160e01b815260040160405180910390fd5b61150b6116c5565b6004805460ff168181111561152257611522611958565b1415801561153557506115336116ef565b155b15611553576040516328c5214b60e01b815260040160405180910390fd5b6040516370a0823160e01b81523060048201526000907f00000000000000000000000000000000000000000000000000000000000000006001600160a01b0316906370a0823190602401602060405180830381865afa1580156115ba573d6000803e3d6000fd5b505050506040513d601f19601f820116820180604052508101906115de9190611a0c565b90508060000361160157604051630686827b60e51b815260040160405180910390fd5b6116556001600160a01b037f0000000000000000000000000000000000000000000000000000000000000000167f0000000000000000000000000000000000000000000000000000000000000000836117f5565b7f00000000000000000000000000000000000000000000000000000000000000006001600160a01b03167feaff4b37086828766ad3268786972c0cd24259d4c87a80f9d3963a3c3d999b0d826040516116b091815260200190565b60405180910390a2506116c36001600055565b565b6002600054036116e857604051633ee5aeb560e01b815260040160405180910390fd5b6002600055565b6000600554600014158015610a2357507f000000000000000000000000000000000000000000000000000000000000000060055461172d91906119e0565b4211905090565b600082856001600160a01b03167fbe958b65e66695a9d9acc3db00e583bd400085bef38e3d76f036ab918f5c966e8642866006546006547f000000000000000000000000000000000000000000000000000000000000000061179691906119f9565b60408051958652602086019490945260ff929092168484015260608401526080830152519081900360a00190a3506000949350505050565b600062015180600854426117e291906119f9565b11156117ee5750600090565b5060095490565b6040516001600160a01b0383811660248301526044820183905261185491859182169063a9059cbb906064015b604051602081830303815290604052915060e01b6020820180516001600160e01b038381831617835250505050611898565b505050565b6040516001600160a01b0384811660248301528381166044830152606482018390526118929186918216906323b872dd90608401611822565b50505050565b600080602060008451602086016000885af1806118bb576040513d6000823e3d81fd5b50506000513d915081156118d35780600114156118e0565b6001600160a01b0384163b155b1561189257604051635274afe760e01b81526001600160a01b038516600482015260240161079a565b80356001600160a01b038116811461192057600080fd5b919050565b60008060006060848603121561193a57600080fd5b61194384611909565b95602085013595506040909401359392505050565b634e487b7160e01b600052602160045260246000fd5b602081016005831061199057634e487b7160e01b600052602160045260246000fd5b91905290565b6000602082840312156119a857600080fd5b5035919050565b6000602082840312156119c157600080fd5b6106c782611909565b634e487b7160e01b600052601160045260246000fd5b808201808211156119f3576119f36119ca565b92915050565b818103818111156119f3576119f36119ca565b600060208284031215611a1e57600080fd5b505191905056fea2646970667358221220c722f0ec9de23a701fda4a75590434ff670d52ab3e728c2c4a9bcc4eccdb1eae64736f6c63430008180033a2646970667358221220e63008023f5f9b40bb48433c35c7cba4c4bc8716834c2b7eb04f9fd5877d4e6d64736f6c63430008180033","linkReferences":{}},"methodIdentifiers":{"createVault(address,address,address,uint256,uint256,uint256,uint256,address[],uint256)":"50b0adce","getVaultCount(address)":"77e1296e","getVaultOwner(address)":"894f4f71","getVaultsByOwner(address)":"ac818711","isVault(address)":"652b9b41"},"id":38}