{"abi":[{"type":"function","name":"createVault","inputs":[{"name":"operator","type":"address","internalType":"address"},{"name":"guardian","type":"address","internalType":"address"},{"name":"paymentToken","type":"address","internalType":"address"},{"name":"budgetCeiling","type":"uint256","internalType":"uint256"},{"name":"perTransactionCap","type":"uint256","internalType":"uint256"},{"name":"dailyVelocityCap","type":"uint256","internalType":"uint256"},{"name":"duration","type":"uint256","internalType":"uint256"},{"name":"initialVendors","type":"address[]","internalType":"address[]"},{"name":"vendorAddTimelock","type":"uint256","internalType":"uint256"}],"outputs":[{"name":"vault","type":"address","internalType":"address"}],"stateMutability":"nonpayable"},{"type":"function","name":"getVaultCount","inputs":[{"name":"owner","type":"address","internalType":"address"}],"outputs":[{"name":"","type":"uint256","internalType":"uint256"}],"stateMutability":"view"},{"type":"function","name":"getVaultOwner","inputs":[{"name":"vault","type":"address","internalType":"address"}],"outputs":[{"name":"","type":"address","internalType":"address"}],"stateMutability":"view"},{"type":"function","name":"getVaultsByOwner","inputs":[{"name":"owner","type":"address","internalType":"address"}],"outputs":[{"name":"","type":"address[]","internalType":"address[]"}],"stateMutability":"view"},{"type":"function","name":"isVault","inputs":[{"name":"addr","type":"address","internalType":"address"}],"outputs":[{"name":"","type":"bool","internalType":"bool"}],"stateMutability":"view"},{"type":"event","name":"VaultCreated","inputs":[{"name":"owner","type":"address","indexed":true,"internalType":"address"},{"name":"vault","type":"address","indexed":true,"internalType":"address"},{"name":"operator","type":"address","indexed":true,"internalType":"address"},{"name":"budgetCeiling","type":"uint256","indexed":false,"internalType":"uint256"}],"anonymous":false},{"type":"error","name":"ZeroAddress","inputs":[]}],"bytecode":{"object":"0x608080604052346100165761223e908161001c8239f35b600080fdfe608080604052600436101561001357600080fd5b60003560e01c90816350b0adce146101ec57508063652b9b41146101af57806377e1296e14610175578063894f4f711461013a5763ac8187111461005657600080fd5b3461013557602080600319360112610135576001600160a01b03908161007a61052b565b16600052600081526040600020604051808383549182815201908193600052846000209060005b8682821061011f5750505050819003601f01601f191681019267ffffffffffffffff841182851017610109579083604052818401908285525180915260408401929160005b8281106100f35785850386f35b83518716855293810193928101926001016100e6565b634e487b7160e01b600052604160045260246000fd5b83548916855290930192600192830192016100a1565b600080fd5b346101355760203660031901126101355760206001600160a01b038061015e61052b565b166000526001825260406000205416604051908152f35b34610135576020366003190112610135576001600160a01b0361019661052b565b1660005260026020526020604060002054604051908152f35b346101355760203660031901126101355760206001600160a01b03806101d361052b565b1660005260018252604060002054161515604051908152f35b34610135576101203660031901126101355761020661052b565b906024356001600160a01b0381168103610135576044356001600160a01b03811692908390036101355767ffffffffffffffff60e435116101355736602360e4350112156101355767ffffffffffffffff60e43560040135116101355736602460e4356004013560051b60e435010111610135576001600160a01b038416158015610523575b61051457506040519160a0830183811067ffffffffffffffff821117610109576040526064358352608435602084015260a435604084015260c435606084015260808301523360005260026020526040600020549060405191602083019033825260408401526040835282606081011067ffffffffffffffff60608501111761010957606083016040528251902092606083016060611cc78501011067ffffffffffffffff6060611cc7860101111761010957608090611cc7620005426060860139336060611cc78601818101929092526001600160a01b038881168584015294851660a0830152825160c0830152602083015160e0830152604083015161010083015282015161012082015291015190911661014080830191909152610160820152600460e435908101356101a0830152602401906101c00160005b60e4356004013581106104e3575061010435611cc784016101800152829003605f19019160600190506000f580156104d75760018060a01b031633600052600060205260406000209182546801000000000000000081101561010957600181018085558110156104c15760209360005283600020016bffffffffffffffffffffffff60a01b9083828254161790558260005260018452604060002090339082541617905533600052600283526040600020600181540190558160405191606435835260018060a01b0316917f4dda9a6d0ba03769e9813c47681795a7210f951e6ef31e64772e13b9ea0f1406853392a4604051908152f35b634e487b7160e01b600052603260045260246000fd5b6040513d6000823e3d90fd5b908235906001600160a01b0382168203610135576001600160a01b03909116815260209283019201906001016103c9565b63d92e233d60e01b8152600490fd5b50821561028c565b600435906001600160a01b03821682036101355756fe610140604052346200047a5762001cc7803803806200001e8162000495565b92833981018181039061014082126200047a576200003c83620004bb565b926200004b60208201620004bb565b9160a06200005c60408401620004bb565b94605f1901126200047a57604051916001600160401b039160a08401838111858210176200047f57604052606082015184526080820151602085015260a0820151604085015260c08201516060850152620000ba60e08301620004bb565b60808501526101008201518381116200047a57820181601f820112156200047a5780519384116200047f578360051b90602080620000fa81850162000495565b8097815201928201019283116200047a57602001905b8282106200045f57505050610120015160016000556001600160a01b0386161580156200044d575b801562000437575b62000425578251156200041057602083015115801562000403575b8015620003f6575b620003e457608086815260a08590528301516001600160a01b0390811660c052835160e05260608401516101005261012091909152600180546001600160a01b031916918616919091179055602082015160025560408201516003556004805460ff19169055805160005b818110620003365750505060808101519051604080516001600160a01b039586168152928516602084015282015290821692909116907f3e0baa5672e0b81e65c1f0d04bb050cba16bc68a2d4c662544f5f2f2963ee2ba90606090a36040516117f69081620004d182396080518181816101a8015281816103880152818161059401528181610886015281816109460152818161098a01528181610a4901528181610b2a01528181610bf101528181610c9101528181610e5301528181610f1801526115c5015260a05181818161033201526111f9015260c05181818161020001528181610530015281816105e701528181610f74015261131f015260e0518181816104b801528181610fa7015281816110e00152818161125c0152818161140f01528181611460015281816114a2015261150901526101005181818161050a01528181610e0f01528181611005015261169c01526101205181818161079b0152610d110152f35b8251811015620003ce57600581901b830160200151600191906001600160a01b031680151580620003b4575b62000370575b5001620001ce565b80600052600a60205260406000208360ff198254161790557f187ea8b96b8ec4b770e46a85aa7421402f105827e5d2bb0705259f060c6043cb600080a23862000368565b5080600052600a60205260ff604060002054161562000362565b634e487b7160e01b600052603260045260246000fd5b6040516312159fa360e11b8152600490fd5b5060608301511562000163565b506040830151156200015b565b60405160016268479f60e01b03198152600490fd5b60405163d92e233d60e01b8152600490fd5b5060808301516001600160a01b03161562000140565b506001600160a01b0384161562000138565b602080916200046e84620004bb565b81520191019062000110565b600080fd5b634e487b7160e01b600052604160045260246000fd5b6040519190601f01601f191682016001600160401b038111838210176200047f57604052565b51906001600160a01b03821682036200047a5756fe6040608081526004908136101561001557600080fd5b600091823560e01c90816309b32a98146111185781630dfe0981146110c25781630f15f4c014610efb5781631865c57d14610ed15781631be393b714610e3a57816325cb5bc014610dde578163279478ba14610dba578163288d2f2314610d8d5781632f13b60c14610d675781633270a63b14610c6a5781633f4ba83a14610bdc57816354b622c914610b045781637919599b14610a305781638456cb5914610975578163893d20e8146109315781638a0dac4a1461085d5781639170246814610825578163a75b87d2146107fc578163adaa1399146107dd578163b6549f75146107be578163b937771714610783578163ca1d209d14610571578163ce1e46261461047e578163d025314d14610361578163e7f43c681461031d578163ee38db951461018c575063fc34d3a61461014c57600080fd5b346101885760203660031901126101885760209160ff9082906001600160a01b0361017561115b565b168152600a855220541690519015158152f35b5080fd5b8383346101885781600319360112610188576001600160a01b037f000000000000000000000000000000000000000000000000000000000000000081811692913384900361030d576101dc611662565b60ff86541660058110156102fa57861415806102eb575b6102db57602493949560207f0000000000000000000000000000000000000000000000000000000000000000928551968780926370a0823160e01b8252308683015286165afa9485156102d1578795610299575b50841561028b57509161027f847feaff4b37086828766ad3268786972c0cd24259d4c87a80f9d3963a3c3d999b0d95936020956116e6565b51908152a26001815580f35b8351630686827b60e51b8152fd5b9094506020813d6020116102c9575b816102b560209383611599565b810103126102c557519387610247565b8680fd5b3d91506102a8565b84513d89823e3d90fd5b82516328c5214b60e01b81528690fd5b506102f4611685565b156101f3565b634e487b7160e01b865260218752602486fd5b82516330cd747160e01b81528690fd5b505034610188578160031936011261018857517f00000000000000000000000000000000000000000000000000000000000000006001600160a01b03168152602090f35b9190503461047a57602036600319011261047a5761037d61115b565b6001600160a01b03907f00000000000000000000000000000000000000000000000000000000000000008216330361046b5760ff8454166005811015610458578414610449571691828452600b60205281842054801561043a57804210610426575050818352600b6020528281812055600a6020528220600160ff198254161790557f187ea8b96b8ec4b770e46a85aa7421402f105827e5d2bb0705259f060c6043cb8280a280f35b6024925191634086279560e11b8352820152fd5b50905163050cf37960e21b8152fd5b50505163905e710760e01b8152fd5b634e487b7160e01b865260218552602486fd5b5050516330cd747160e01b8152fd5b8280fd5b50503461018857816003193601126101885760a091608082516104a081611567565b828152826020820152828482015282606082015201527f000000000000000000000000000000000000000000000000000000000000000090600254600354600180861b03928051916104f183611567565b85835260208301938452818301908152608060608401937f000000000000000000000000000000000000000000000000000000000000000085520193857f00000000000000000000000000000000000000000000000000000000000000001685528251968752516020870152519085015251606084015251166080820152f35b838334610188576020908160031936011261047a578335916001600160a01b03907f00000000000000000000000000000000000000000000000000000000000000008216330361030d5760ff86541660058110156102fa578681146107735784156107635780151580610758575b6107395750807f000000000000000000000000000000000000000000000000000000000000000061063c85516323b872dd60e01b848201523360248201523060448201528760648201526064815261063681611567565b82611738565b60248551809581936370a0823160e01b8352308c840152165afa91821561072f5785926106fc575b50855460ff811660058110156106e957907f73a19dd210f1a7f902193214c0ee91dd35ee5b4d920cba8d519eca65a7b488ca95969791156106b0575b505082519485528401523392a280f35b60019060ff19161790557fc4c14883ae9fd8e26d5d59e3485ed29fd126d781d7e498a4ca5c54c8268e4936818451848152a186806106a0565b634e487b7160e01b875260218852602487fd5b9080925081813d8311610728575b6107148183611599565b8101031261072457519086610664565b8480fd5b503d61070a565b83513d87823e3d90fd5b835163e37d4aeb60e01b815290819061075490828a01611176565b0390fd5b5060018114156105df565b8351631f2a200560e01b81528790fd5b835163905e710760e01b81528790fd5b505034610188578160031936011261018857602090517f00000000000000000000000000000000000000000000000000000000000000008152f35b83346107da57806003193601126107da576107d76115bb565b80f35b80fd5b5050346101885781600319360112610188576020906005549051908152f35b50503461018857816003193601126101885760015490516001600160a01b039091168152602090f35b5050346101885760203660031901126101885760209181906001600160a01b0361084d61115b565b168152600b845220549051908152f35b90503461047a57602036600319011261047a5761087861115b565b6001600160a01b03929091907f0000000000000000000000000000000000000000000000000000000000000000841633036109245760ff825416600581101561091157821461090457505016806bffffffffffffffffffffffff60a01b60015416176001557fe6c09ffe4572dc9ceaa5ddde4ae41befa655d6fdfe8052077af0970f700e942e8280a280f35b5163905e710760e01b8152fd5b634e487b7160e01b865260218352602486fd5b516330cd747160e01b8152fd5b505034610188578160031936011261018857517f00000000000000000000000000000000000000000000000000000000000000006001600160a01b03168152602090f35b9190503461047a578260031936011261047a577f00000000000000000000000000000000000000000000000000000000000000006001600160a01b031633036109245781549060ff8216906005821015610a1d5760028203610a0357505060ff191660031790557f9e87fac88ff661f02d44f95383c817fece4bce600a3dab7a54406878b965e7528180a180f35b5163e37d4aeb60e01b815290819061075490828601611176565b634e487b7160e01b855260218452602485fd5b9190503461047a57602036600319011261047a578135917f00000000000000000000000000000000000000000000000000000000000000006001600160a01b03163303610af65760ff8154166005811015610ae3578114610ad557600254831015610ac75750816020917f1d99d5d078065a3a79de77da53aae049116200db01a8b2b7efb23b47a5a22fe39360025551908152a180f35b9051632f029aa160e21b8152fd5b905163905e710760e01b8152fd5b634e487b7160e01b855260218252602485fd5b90516330cd747160e01b8152fd5b90503461047a57602036600319011261047a57610b1f61115b565b6001600160a01b03917f000000000000000000000000000000000000000000000000000000000000000083163303610bce5760ff8154166005811015610bbb578114610bad57509083911691828252600a60205280822060ff198154169055600b6020528120557fceb8b5081e60cbeafb2db1ed5f2ef32309a5ba1d0d74ac127be270181f297e588280a280f35b835163905e710760e01b8152fd5b634e487b7160e01b865260218252602486fd5b83516330cd747160e01b8152fd5b9190503461047a578260031936011261047a577f00000000000000000000000000000000000000000000000000000000000000006001600160a01b031633036109245781549060ff8216906005821015610a1d5760038203610a0357505060ff191660021790557fa45f47fdea8a1efdd9029a5691c7f759c32b7c698632b563573e155625d169338180a180f35b9190503461047a57602036600319011261047a57610c8661115b565b6001600160a01b03907f00000000000000000000000000000000000000000000000000000000000000008216330361046b5760ff84541660058110156104585784146104495716918215610d5957828452600a60205260ff8285205416610d4b575060207f22e0df9fcacd692b17053e2415b7fe3ad2164c92042d7307e3c195482dfabc7e91610d367f00000000000000000000000000000000000000000000000000000000000000004261119f565b90848652600b8352818187205551908152a280f35b905163124f30f760e21b8152fd5b905163d92e233d60e01b8152fd5b505034610188578160031936011261018857602090610d84611685565b90519015158152f35b90503461047a57602036600319011261047a578160209360ff92358152600c855220541690519015158152f35b505034610188578160031936011261018857602090610dd76116c6565b9051908152f35b5050346101885781600319360112610188576020916005548015600014610e085750905b51908152f35b610e3491507f00000000000000000000000000000000000000000000000000000000000000009061119f565b90610e02565b9190503461047a57602036600319011261047a578135917f00000000000000000000000000000000000000000000000000000000000000006001600160a01b03163303610af65760ff8154166005811015610ae3578114610ad557600354831015610ac75750816020917f1e3d644a723190d6c3500641c0a6c62fda9afbbdbda7f89de4da82f2585135d99360035551908152a180f35b8284346107da57806003193601126107da575060ff610ef7925416905191829182611176565b0390f35b8383346101885781600319360112610188576001600160a01b03927f000000000000000000000000000000000000000000000000000000000000000084163303610af65780549360ff851660058110156110af5760018103611094575060206024918451928380926370a0823160e01b825230878301527f0000000000000000000000000000000000000000000000000000000000000000165afa908115611087578491611051575b507f00000000000000000000000000000000000000000000000000000000000000009081811061103957505060027f4867887a5b0bebacccb6e4c9c656b3a6b2fe478e226ea1fa5230d9b4bdabc26e939460ff19161790554260055561102a7f00000000000000000000000000000000000000000000000000000000000000004261119f565b8151904282526020820152a180f35b6044935192622f087f60ea1b84528301526024820152fd5b90506020813d60201161107f575b8161106c60209383611599565b8101031261107b575185610fa4565b8380fd5b3d915061105f565b50505051903d90823e3d90fd5b835163e37d4aeb60e01b815290819061075490828601611176565b634e487b7160e01b855260218352602485fd5b505034610188578160031936011261018857600654606091611104827f00000000000000000000000000000000000000000000000000000000000000006111c2565b906007549181519384526020840152820152f35b5050346101885760603660031901126101885790602091600161115161113c61115b565b611144611662565b60443590602435906111cf565b9255519015158152f35b600435906001600160a01b038216820361117157565b600080fd5b9190602083019260058210156111895752565b634e487b7160e01b600052602160045260246000fd5b919082018092116111ac57565b634e487b7160e01b600052601160045260246000fd5b919082039182116111ac57565b919060ff60045416600581101561118957600214801590611559575b6114ec576001600160a01b037f00000000000000000000000000000000000000000000000000000000000000008116330361148457831690600093828552602090600a8252604060ff81882054161561143e5783158015611433575b6113ed5760065491611259858461119f565b927f00000000000000000000000000000000000000000000000000000000000000008094116113cb5761128a6116c6565b90611295878361119f565b600354106113a857888a52600c865260ff848b2054166113695750858392611316826113439460809a9998978e8e9f9e7f325baefd2ac82e2141e4977409453a852976a8f11bcd9bd9f6114c71fb4021829e9f52600c8b5220600160ff198254161790556113058260065461119f565b60065560016007540160075561119f565b600955426008557f00000000000000000000000000000000000000000000000000000000000000006116e6565b61135060065480936111c2565b92815194855242908501528301526060820152a3600190565b915050600760a0949261138c836000805160206117a183398151915298966111c2565b938151958652429086015284015260608301526080820152a390565b915050600660a0949261138c836000805160206117a183398151915298966111c2565b9050600560a0949261138c836000805160206117a183398151915298966111c2565b6000805160206117a18339815191529391509160a09260046006549161138c837f00000000000000000000000000000000000000000000000000000000000000006111c2565b506002548411611247565b6000805160206117a18339815191529391509160a09260036006549161138c837f00000000000000000000000000000000000000000000000000000000000000006111c2565b60a0906000805160206117a18339815191529293946006546114c6817f00000000000000000000000000000000000000000000000000000000000000006111c2565b9060405196875242602088015260026040880152606087015260808601521692a3600090565b909160a06000805160206117a18339815191529160065461152d817f00000000000000000000000000000000000000000000000000000000000000006111c2565b906040519586524260208701526001604087015260608601526080850152600180831b031692a3600090565b50611562611685565b6111eb565b60a0810190811067ffffffffffffffff82111761158357604052565b634e487b7160e01b600052604160045260246000fd5b90601f8019910116810190811067ffffffffffffffff82111761158357604052565b60018060a01b03807f0000000000000000000000000000000000000000000000000000000000000000163314159081611653575b506116415760045460ff811660058110156111895760041461163e5760049060ff191617600455337fb6fa8b8bd5eab60f292eca876e3ef90722275b785309d84b1de113ce0b8c4e74600080a2565b50565b60405163ea8e4eb560e01b8152600490fd5b905060015416331415386115ef565b600260005414611673576002600055565b604051633ee5aeb560e01b8152600490fd5b6005548015159081611695575090565b6116c191507f00000000000000000000000000000000000000000000000000000000000000009061119f565b421190565b620151806116d6600854426111c2565b116116e15760095490565b600090565b60405163a9059cbb60e01b60208201526001600160a01b039092166024830152604480830193909352918152608081019167ffffffffffffffff8311828410176115835761173692604052611738565b565b906000602091828151910182855af115611794576000513d61178b57506001600160a01b0381163b155b6117695750565b604051635274afe760e01b81526001600160a01b039091166004820152602490fd5b60011415611762565b6040513d6000823e3d90fdfebe958b65e66695a9d9acc3db00e583bd400085bef38e3d76f036ab918f5c966ea2646970667358221220f3f099d6715204cc53b463c5c45237f37de6f5542be814421f095da67ebad8e764736f6c63430008180033a2646970667358221220e605a236e3ce3372a368f05dcac1b76b3fb27972249c8ab3cb649e67dfee124264736f6c63430008180033","linkReferences":{}},"methodIdentifiers":{"createVault(address,address,address,uint256,uint256,uint256,uint256,address[],uint256)":"50b0adce","getVaultCount(address)":"77e1296e","getVaultOwner(address)":"894f4f71","getVaultsByOwner(address)":"ac818711","isVault(address)":"652b9b41"},"id":41}