{"abi":[{"type":"constructor","inputs":[{"name":"owner_","type":"address","internalType":"address"},{"name":"operator_","type":"address","internalType":"address"},{"name":"guardian_","type":"address","internalType":"address"},{"name":"policy_","type":"tuple","internalType":"struct IPolicyVault.Policy","components":[{"name":"budgetCeiling","type":"uint256","internalType":"uint256"},{"name":"perTransactionCap","type":"uint256","internalType":"uint256"},{"name":"dailyVelocityCap","type":"uint256","internalType":"uint256"},{"name":"duration","type":"uint256","internalType":"uint256"},{"name":"paymentToken","type":"address","internalType":"address"}]},{"name":"initialVendors_","type":"address[]","internalType":"address[]"},{"name":"vendorAddTimelock_","type":"uint256","internalType":"uint256"}],"stateMutability":"nonpayable"},{"type":"function","name":"activate","inputs":[],"outputs":[],"stateMutability":"nonpayable"},{"type":"function","name":"executeAddVendor","inputs":[{"name":"vendor","type":"address","internalType":"address"}],"outputs":[],"stateMutability":"nonpayable"},{"type":"function","name":"fund","inputs":[{"name":"amount","type":"uint256","internalType":"uint256"}],"outputs":[],"stateMutability":"nonpayable"},{"type":"function","name":"getActivationTime","inputs":[],"outputs":[{"name":"","type":"uint256","internalType":"uint256"}],"stateMutability":"view"},{"type":"function","name":"getExpiryTime","inputs":[],"outputs":[{"name":"","type":"uint256","internalType":"uint256"}],"stateMutability":"view"},{"type":"function","name":"getGuardian","inputs":[],"outputs":[{"name":"","type":"address","internalType":"address"}],"stateMutability":"view"},{"type":"function","name":"getOperator","inputs":[],"outputs":[{"name":"","type":"address","internalType":"address"}],"stateMutability":"view"},{"type":"function","name":"getOwner","inputs":[],"outputs":[{"name":"","type":"address","internalType":"address"}],"stateMutability":"view"},{"type":"function","name":"getPendingVendorReadyAt","inputs":[{"name":"vendor","type":"address","internalType":"address"}],"outputs":[{"name":"","type":"uint256","internalType":"uint256"}],"stateMutability":"view"},{"type":"function","name":"getPolicy","inputs":[],"outputs":[{"name":"","type":"tuple","internalType":"struct IPolicyVault.Policy","components":[{"name":"budgetCeiling","type":"uint256","internalType":"uint256"},{"name":"perTransactionCap","type":"uint256","internalType":"uint256"},{"name":"dailyVelocityCap","type":"uint256","internalType":"uint256"},{"name":"duration","type":"uint256","internalType":"uint256"},{"name":"paymentToken","type":"address","internalType":"address"}]}],"stateMutability":"view"},{"type":"function","name":"getRollingDailySpend","inputs":[],"outputs":[{"name":"","type":"uint256","internalType":"uint256"}],"stateMutability":"view"},{"type":"function","name":"getSpendStats","inputs":[],"outputs":[{"name":"totalSpent","type":"uint256","internalType":"uint256"},{"name":"budgetRemaining","type":"uint256","internalType":"uint256"},{"name":"spendCount","type":"uint256","internalType":"uint256"}],"stateMutability":"view"},{"type":"function","name":"getState","inputs":[],"outputs":[{"name":"","type":"uint8","internalType":"enum IPolicyVault.VaultState"}],"stateMutability":"view"},{"type":"function","name":"getVendorAddTimelock","inputs":[],"outputs":[{"name":"","type":"uint256","internalType":"uint256"}],"stateMutability":"view"},{"type":"function","name":"isExpired","inputs":[],"outputs":[{"name":"","type":"bool","internalType":"bool"}],"stateMutability":"view"},{"type":"function","name":"isVendorApproved","inputs":[{"name":"vendor","type":"address","internalType":"address"}],"outputs":[{"name":"","type":"bool","internalType":"bool"}],"stateMutability":"view"},{"type":"function","name":"lowerDailyVelocityCap","inputs":[{"name":"newCap","type":"uint256","internalType":"uint256"}],"outputs":[],"stateMutability":"nonpayable"},{"type":"function","name":"lowerPerTransactionCap","inputs":[{"name":"newCap","type":"uint256","internalType":"uint256"}],"outputs":[],"stateMutability":"nonpayable"},{"type":"function","name":"pause","inputs":[],"outputs":[],"stateMutability":"nonpayable"},{"type":"function","name":"queueAddVendor","inputs":[{"name":"vendor","type":"address","internalType":"address"}],"outputs":[],"stateMutability":"nonpayable"},{"type":"function","name":"removeVendor","inputs":[{"name":"vendor","type":"address","internalType":"address"}],"outputs":[],"stateMutability":"nonpayable"},{"type":"function","name":"requestSpend","inputs":[{"name":"vendor","type":"address","internalType":"address"},{"name":"amount","type":"uint256","internalType":"uint256"},{"name":"intentHash","type":"bytes32","internalType":"bytes32"}],"outputs":[{"name":"","type":"bool","internalType":"bool"}],"stateMutability":"nonpayable"},{"type":"function","name":"revoke","inputs":[],"outputs":[],"stateMutability":"nonpayable"},{"type":"function","name":"setGuardian","inputs":[{"name":"guardian_","type":"address","internalType":"address"}],"outputs":[],"stateMutability":"nonpayable"},{"type":"function","name":"unpause","inputs":[],"outputs":[],"stateMutability":"nonpayable"},{"type":"function","name":"withdrawRemaining","inputs":[],"outputs":[],"stateMutability":"nonpayable"},{"type":"event","name":"Activated","inputs":[{"name":"activationTime","type":"uint256","indexed":false,"internalType":"uint256"},{"name":"expiryTime","type":"uint256","indexed":false,"internalType":"uint256"}],"anonymous":false},{"type":"event","name":"DailyVelocityCapLowered","inputs":[{"name":"newCap","type":"uint256","indexed":false,"internalType":"uint256"}],"anonymous":false},{"type":"event","name":"Deposited","inputs":[{"name":"from","type":"address","indexed":true,"internalType":"address"},{"name":"amount","type":"uint256","indexed":false,"internalType":"uint256"},{"name":"vaultBalance","type":"uint256","indexed":false,"internalType":"uint256"}],"anonymous":false},{"type":"event","name":"Funded","inputs":[{"name":"vaultBalance","type":"uint256","indexed":false,"internalType":"uint256"}],"anonymous":false},{"type":"event","name":"FundsWithdrawn","inputs":[{"name":"to","type":"address","indexed":true,"internalType":"address"},{"name":"amount","type":"uint256","indexed":false,"internalType":"uint256"}],"anonymous":false},{"type":"event","name":"GuardianSet","inputs":[{"name":"guardian","type":"address","indexed":true,"internalType":"address"}],"anonymous":false},{"type":"event","name":"Paused","inputs":[],"anonymous":false},{"type":"event","name":"PerTransactionCapLowered","inputs":[{"name":"newCap","type":"uint256","indexed":false,"internalType":"uint256"}],"anonymous":false},{"type":"event","name":"Revoked","inputs":[{"name":"by","type":"address","indexed":true,"internalType":"address"}],"anonymous":false},{"type":"event","name":"SpendRejected","inputs":[{"name":"vendor","type":"address","indexed":true,"internalType":"address"},{"name":"amount","type":"uint256","indexed":false,"internalType":"uint256"},{"name":"intentHash","type":"bytes32","indexed":false,"internalType":"bytes32"},{"name":"timestamp","type":"uint256","indexed":false,"internalType":"uint256"},{"name":"failedCheckIndex","type":"uint8","indexed":false,"internalType":"uint8"},{"name":"totalSpentSoFar","type":"uint256","indexed":false,"internalType":"uint256"},{"name":"budgetRemaining","type":"uint256","indexed":false,"internalType":"uint256"}],"anonymous":false},{"type":"event","name":"SpendSettled","inputs":[{"name":"vendor","type":"address","indexed":true,"internalType":"address"},{"name":"amount","type":"uint256","indexed":false,"internalType":"uint256"},{"name":"intentHash","type":"bytes32","indexed":false,"internalType":"bytes32"},{"name":"timestamp","type":"uint256","indexed":false,"internalType":"uint256"},{"name":"totalSpentAfter","type":"uint256","indexed":false,"internalType":"uint256"},{"name":"budgetRemaining","type":"uint256","indexed":false,"internalType":"uint256"}],"anonymous":false},{"type":"event","name":"Unpaused","inputs":[],"anonymous":false},{"type":"event","name":"VaultInitialized","inputs":[{"name":"owner","type":"address","indexed":true,"internalType":"address"},{"name":"operator","type":"address","indexed":true,"internalType":"address"},{"name":"guardian","type":"address","indexed":false,"internalType":"address"},{"name":"paymentToken","type":"address","indexed":false,"internalType":"address"},{"name":"budgetCeiling","type":"uint256","indexed":false,"internalType":"uint256"}],"anonymous":false},{"type":"event","name":"VendorAddQueued","inputs":[{"name":"vendor","type":"address","indexed":true,"internalType":"address"},{"name":"readyAt","type":"uint256","indexed":false,"internalType":"uint256"}],"anonymous":false},{"type":"event","name":"VendorAdded","inputs":[{"name":"vendor","type":"address","indexed":true,"internalType":"address"}],"anonymous":false},{"type":"event","name":"VendorRemoved","inputs":[{"name":"vendor","type":"address","indexed":true,"internalType":"address"}],"anonymous":false},{"type":"error","name":"AlreadyRevoked","inputs":[]},{"type":"error","name":"CannotRaiseCap","inputs":[]},{"type":"error","name":"InsufficientFunding","inputs":[{"name":"balance","type":"uint256","internalType":"uint256"},{"name":"required","type":"uint256","internalType":"uint256"}]},{"type":"error","name":"InvalidPolicyParam","inputs":[]},{"type":"error","name":"NotAuthorized","inputs":[]},{"type":"error","name":"NotOwner","inputs":[]},{"type":"error","name":"NotWithdrawable","inputs":[]},{"type":"error","name":"NothingToWithdraw","inputs":[]},{"type":"error","name":"ReentrancyGuardReentrantCall","inputs":[]},{"type":"error","name":"SafeERC20FailedOperation","inputs":[{"name":"token","type":"address","internalType":"address"}]},{"type":"error","name":"TimelockNotElapsed","inputs":[{"name":"readyAt","type":"uint256","internalType":"uint256"}]},{"type":"error","name":"VendorAlreadyApproved","inputs":[]},{"type":"error","name":"VendorNotPending","inputs":[]},{"type":"error","name":"WrongState","inputs":[{"name":"current","type":"uint8","internalType":"enum IPolicyVault.VaultState"}]},{"type":"error","name":"ZeroAddress","inputs":[]},{"type":"error","name":"ZeroAmount","inputs":[]},{"type":"error","name":"ZeroBudget","inputs":[]}],"bytecode":{"object":"0x6101406040523480156200001257600080fd5b5060405162001fa238038062001fa2833981016040819052620000359162000395565b60016000556001600160a01b03861615806200005857506001600160a01b038516155b806200006f575060808301516001600160a01b0316155b156200008e5760405163d92e233d60e01b815260040160405180910390fd5b8251600003620000b45760405160016268479f60e01b0319815260040160405180910390fd5b60208301511580620000c857506040830151155b80620000d657506060830151155b15620000f5576040516312159fa360e11b815260040160405180910390fd5b6001600160a01b03868116608090815286821660a052840151811660c052835160e052606084015161010052610120829052600180546001600160a01b031916918616919091179055602083015160025560408301516003556004805460ff19169055815160005b818110156200021e5760008482815181106200017d576200017d62000475565b6020026020010151905060006001600160a01b0316816001600160a01b031614158015620001c457506001600160a01b0381166000908152600a602052604090205460ff16155b1562000214576001600160a01b0381166000818152600a6020526040808220805460ff19166001179055517f187ea8b96b8ec4b770e46a85aa7421402f105827e5d2bb0705259f060c6043cb9190a25b506001016200015d565b5060808401518451604080516001600160a01b038981168252938416602082015290810191909152818816918916907f3e0baa5672e0b81e65c1f0d04bb050cba16bc68a2d4c662544f5f2f2963ee2ba9060600160405180910390a3505050505050506200048b565b80516001600160a01b03811681146200029f57600080fd5b919050565b634e487b7160e01b600052604160045260246000fd5b60405160a081016001600160401b0381118282101715620002df57620002df620002a4565b60405290565b600082601f830112620002f757600080fd5b815160206001600160401b0380831115620003165762000316620002a4565b8260051b604051601f19603f830116810181811084821117156200033e576200033e620002a4565b60405293845260208187018101949081019250878511156200035f57600080fd5b6020870191505b848210156200038a576200037a8262000287565b8352918301919083019062000366565b979650505050505050565b600080600080600080868803610140811215620003b157600080fd5b620003bc8862000287565b9650620003cc6020890162000287565b9550620003dc6040890162000287565b945060a0605f1982011215620003f157600080fd5b50620003fc620002ba565b606088015181526080880151602082015260a0880151604082015260c088015160608201526200042f60e0890162000287565b60808201526101008801519093506001600160401b038111156200045257600080fd5b6200046089828a01620002e5565b92505061012087015190509295509295509295565b634e487b7160e01b600052603260045260246000fd5b60805160a05160c05160e05161010051610120516119ee620005b4600039600081816103160152610ab501526000818161086001528181610984015281816112bb015261168e0152600081816104e0015281816105f001528181610668015281816107bf015281816107fa0152818161128501526116fa01526000818161059301528181610748015281816110f101528181611131015281816112e1015281816114f8015261159b0152600081816103b0015261045f01526000818161027f015281816106aa015281816108ac015281816109da01528181610b4201528181610c0201528181610cd601528181610dab01528181610e6b01528181610f3301528181610fec0152818161131c01528181611452015281816115bd01526115e401526119ee6000f3fe608060405234801561001057600080fd5b506004361061018e5760003560e01c8063893d20e8116100de578063b937771711610097578063d025314d11610071578063d025314d1461039b578063e7f43c68146103ae578063ee38db95146103d4578063fc34d3a6146103dc57600080fd5b8063b937771714610314578063ca1d209d1461033a578063ce1e46261461034d57600080fd5b8063893d20e81461027d5780638a0dac4a146102b757806391702468146102ca578063a75b87d2146102f3578063adaa139914610304578063b6549f751461030c57600080fd5b8063279478ba1161014b5780633f4ba83a116101255780633f4ba83a1461024757806354b622c91461024f5780637919599b146102625780638456cb591461027557600080fd5b8063279478ba146102245780632f13b60c1461022c5780633270a63b1461023457600080fd5b806309b32a98146101935780630dfe0981146101bb5780630f15f4c0146101de5780631865c57d146101e85780631be393b7146101fb57806325cb5bc01461020e575b600080fd5b6101a66101a13660046118b8565b610408565b60405190151581526020015b60405180910390f35b6101c361065b565b604080519384526020840192909252908201526060016101b2565b6101e661069f565b005b60045460ff166040516101b29190611901565b6101e6610209366004611929565b6108a1565b610216610976565b6040519081526020016101b2565b6102166109bb565b6101a66109c5565b6101e6610242366004611942565b6109cf565b6101e6610b37565b6101e661025d366004611942565b610bf7565b6101e6610270366004611929565b610ccb565b6101e6610da0565b7f00000000000000000000000000000000000000000000000000000000000000005b6040516001600160a01b0390911681526020016101b2565b6101e66102c5366004611942565b610e60565b6102166102d8366004611942565b6001600160a01b03166000908152600b602052604090205490565b6001546001600160a01b031661029f565b600554610216565b6101e6610f28565b7f0000000000000000000000000000000000000000000000000000000000000000610216565b6101e6610348366004611929565b610fe1565b61035561123d565b6040516101b29190815181526020808301519082015260408083015190820152606080830151908201526080918201516001600160a01b03169181019190915260a00190565b6101e66103a9366004611942565b611311565b7f000000000000000000000000000000000000000000000000000000000000000061029f565b6101e6611447565b6101a66103ea366004611942565b6001600160a01b03166000908152600a602052604090205460ff1690565b6000610412611652565b60026004805460ff169081111561042b5761042b6118eb565b14158061043b575061043b61167c565b156104545761044d84848460016116c1565b905061064a565b336001600160a01b037f000000000000000000000000000000000000000000000000000000000000000016146104915761044d84848460026116c1565b6001600160a01b0384166000908152600a602052604090205460ff166104be5761044d84848460036116c1565b8215806104cc575060025483115b156104de5761044d84848460046116c1565b7f00000000000000000000000000000000000000000000000000000000000000008360065461050d9190611973565b11156105205761044d84848460056116c1565b600061052a611761565b60035490915061053a8583611973565b11156105555761054d85858560066116c1565b91505061064a565b83600660008282546105679190611973565b909155505060078054600101905561057f8482611973565b600955426008556105ba6001600160a01b037f0000000000000000000000000000000000000000000000000000000000000000168686611788565b846001600160a01b03167f325baefd2ac82e2141e4977409453a852976a8f11bcd9bd9f6114c71fb4021828585426006546006547f0000000000000000000000000000000000000000000000000000000000000000610619919061198c565b604080519586526020860194909452928401919091526060830152608082015260a00160405180910390a260019150505b6106546001600055565b9392505050565b60008060006006546006547f0000000000000000000000000000000000000000000000000000000000000000610691919061198c565b600754925092509250909192565b336001600160a01b037f000000000000000000000000000000000000000000000000000000000000000016146106e8576040516330cd747160e01b815260040160405180910390fd5b60016004805460ff1690811115610701576107016118eb565b14610730576004805460405163e37d4aeb60e01b81526107279260ff9092169101611901565b60405180910390fd5b6040516370a0823160e01b81523060048201526000907f00000000000000000000000000000000000000000000000000000000000000006001600160a01b0316906370a0823190602401602060405180830381865afa158015610797573d6000803e3d6000fd5b505050506040513d601f19601f820116820180604052508101906107bb919061199f565b90507f000000000000000000000000000000000000000000000000000000000000000081101561082657604051622f087f60ea1b8152600481018290527f00000000000000000000000000000000000000000000000000000000000000006024820152604401610727565b6004805460ff191660021790554260058190557f4867887a5b0bebacccb6e4c9c656b3a6b2fe478e226ea1fa5230d9b4bdabc26e906108857f000000000000000000000000000000000000000000000000000000000000000082611973565b604080519283526020830191909152015b60405180910390a150565b336001600160a01b037f000000000000000000000000000000000000000000000000000000000000000016146108ea576040516330cd747160e01b815260040160405180910390fd5b6004805460ff1681811115610901576109016118eb565b0361091f5760405163905e710760e01b815260040160405180910390fd5b600354811061094157604051632f029aa160e21b815260040160405180910390fd5b60038190556040518181527f1e3d644a723190d6c3500641c0a6c62fda9afbbdbda7f89de4da82f2585135d990602001610896565b60006005546000146109b5577f00000000000000000000000000000000000000000000000000000000000000006005546109b09190611973565b905090565b50600090565b60006109b0611761565b60006109b061167c565b336001600160a01b037f00000000000000000000000000000000000000000000000000000000000000001614610a18576040516330cd747160e01b815260040160405180910390fd5b6004805460ff1681811115610a2f57610a2f6118eb565b03610a4d5760405163905e710760e01b815260040160405180910390fd5b6001600160a01b038116610a745760405163d92e233d60e01b815260040160405180910390fd5b6001600160a01b0381166000908152600a602052604090205460ff1615610aae5760405163124f30f760e21b815260040160405180910390fd5b6000610ada7f000000000000000000000000000000000000000000000000000000000000000042611973565b6001600160a01b0383166000818152600b60205260409081902083905551919250907f22e0df9fcacd692b17053e2415b7fe3ad2164c92042d7307e3c195482dfabc7e90610b2b9084815260200190565b60405180910390a25050565b336001600160a01b037f00000000000000000000000000000000000000000000000000000000000000001614610b80576040516330cd747160e01b815260040160405180910390fd5b60036004805460ff1690811115610b9957610b996118eb565b14610bbf576004805460405163e37d4aeb60e01b81526107279260ff9092169101611901565b6004805460ff191660021790556040517fa45f47fdea8a1efdd9029a5691c7f759c32b7c698632b563573e155625d1693390600090a1565b336001600160a01b037f00000000000000000000000000000000000000000000000000000000000000001614610c40576040516330cd747160e01b815260040160405180910390fd5b6004805460ff1681811115610c5757610c576118eb565b03610c755760405163905e710760e01b815260040160405180910390fd5b6001600160a01b0381166000818152600a60209081526040808320805460ff19169055600b909152808220829055517fceb8b5081e60cbeafb2db1ed5f2ef32309a5ba1d0d74ac127be270181f297e589190a250565b336001600160a01b037f00000000000000000000000000000000000000000000000000000000000000001614610d14576040516330cd747160e01b815260040160405180910390fd5b6004805460ff1681811115610d2b57610d2b6118eb565b03610d495760405163905e710760e01b815260040160405180910390fd5b6002548110610d6b57604051632f029aa160e21b815260040160405180910390fd5b60028190556040518181527f1d99d5d078065a3a79de77da53aae049116200db01a8b2b7efb23b47a5a22fe390602001610896565b336001600160a01b037f00000000000000000000000000000000000000000000000000000000000000001614610de9576040516330cd747160e01b815260040160405180910390fd5b60026004805460ff1690811115610e0257610e026118eb565b14610e28576004805460405163e37d4aeb60e01b81526107279260ff9092169101611901565b6004805460ff191660031790556040517f9e87fac88ff661f02d44f95383c817fece4bce600a3dab7a54406878b965e75290600090a1565b336001600160a01b037f00000000000000000000000000000000000000000000000000000000000000001614610ea9576040516330cd747160e01b815260040160405180910390fd5b6004805460ff1681811115610ec057610ec06118eb565b03610ede5760405163905e710760e01b815260040160405180910390fd5b600180546001600160a01b0319166001600160a01b0383169081179091556040517fe6c09ffe4572dc9ceaa5ddde4ae41befa655d6fdfe8052077af0970f700e942e90600090a250565b336001600160a01b037f00000000000000000000000000000000000000000000000000000000000000001614801590610f6c57506001546001600160a01b03163314155b15610f8a5760405163ea8e4eb560e01b815260040160405180910390fd5b6004805460ff1681811115610fa157610fa16118eb565b03610fa857565b6004805460ff19168117905560405133907fb6fa8b8bd5eab60f292eca876e3ef90722275b785309d84b1de113ce0b8c4e7490600090a2565b336001600160a01b037f0000000000000000000000000000000000000000000000000000000000000000161461102a576040516330cd747160e01b815260040160405180910390fd5b6004805460ff1681811115611041576110416118eb565b0361105f5760405163905e710760e01b815260040160405180910390fd5b8060000361108057604051631f2a200560e01b815260040160405180910390fd5b60006004805460ff1690811115611099576110996118eb565b141580156110be575060016004805460ff16908111156110bb576110bb6118eb565b14155b156110e4576004805460405163e37d4aeb60e01b81526107279260ff9092169101611901565b6111196001600160a01b037f0000000000000000000000000000000000000000000000000000000000000000163330846117ec565b6040516370a0823160e01b81523060048201526000907f00000000000000000000000000000000000000000000000000000000000000006001600160a01b0316906370a0823190602401602060405180830381865afa158015611180573d6000803e3d6000fd5b505050506040513d601f19601f820116820180604052508101906111a4919061199f565b905060006004805460ff16908111156111bf576111bf6118eb565b03611205576004805460ff191660011790556040518181527fc4c14883ae9fd8e26d5d59e3485ed29fd126d781d7e498a4ca5c54c8268e49369060200160405180910390a15b604080518381526020810183905233917f73a19dd210f1a7f902193214c0ee91dd35ee5b4d920cba8d519eca65a7b488ca9101610b2b565b6112786040518060a001604052806000815260200160008152602001600081526020016000815260200160006001600160a01b031681525090565b6040518060a001604052807f00000000000000000000000000000000000000000000000000000000000000008152602001600254815260200160035481526020017f000000000000000000000000000000000000000000000000000000000000000081526020017f00000000000000000000000000000000000000000000000000000000000000006001600160a01b0316815250905090565b336001600160a01b037f0000000000000000000000000000000000000000000000000000000000000000161461135a576040516330cd747160e01b815260040160405180910390fd5b6004805460ff1681811115611371576113716118eb565b0361138f5760405163905e710760e01b815260040160405180910390fd5b6001600160a01b0381166000908152600b6020526040812054908190036113c95760405163050cf37960e21b815260040160405180910390fd5b804210156113ed57604051634086279560e11b815260048101829052602401610727565b6001600160a01b0382166000818152600b60209081526040808320839055600a909152808220805460ff19166001179055517f187ea8b96b8ec4b770e46a85aa7421402f105827e5d2bb0705259f060c6043cb9190a25050565b336001600160a01b037f00000000000000000000000000000000000000000000000000000000000000001614611490576040516330cd747160e01b815260040160405180910390fd5b611498611652565b6004805460ff16818111156114af576114af6118eb565b141580156114c257506114c061167c565b155b156114e0576040516328c5214b60e01b815260040160405180910390fd5b6040516370a0823160e01b81523060048201526000907f00000000000000000000000000000000000000000000000000000000000000006001600160a01b0316906370a0823190602401602060405180830381865afa158015611547573d6000803e3d6000fd5b505050506040513d601f19601f8201168201806040525081019061156b919061199f565b90508060000361158e57604051630686827b60e51b815260040160405180910390fd5b6115e26001600160a01b037f0000000000000000000000000000000000000000000000000000000000000000167f000000000000000000000000000000000000000000000000000000000000000083611788565b7f00000000000000000000000000000000000000000000000000000000000000006001600160a01b03167feaff4b37086828766ad3268786972c0cd24259d4c87a80f9d3963a3c3d999b0d8260405161163d91815260200190565b60405180910390a2506116506001600055565b565b60026000540361167557604051633ee5aeb560e01b815260040160405180910390fd5b6002600055565b60006005546000141580156109b057507f00000000000000000000000000000000000000000000000000000000000000006005546116ba9190611973565b4211905090565b6000846001600160a01b03167fbe958b65e66695a9d9acc3db00e583bd400085bef38e3d76f036ab918f5c966e858542866006546006547f0000000000000000000000000000000000000000000000000000000000000000611723919061198c565b6040805196875260208701959095529385019290925260ff166060840152608083015260a082015260c00160405180910390a2506000949350505050565b60006201518060085442611775919061198c565b11156117815750600090565b5060095490565b6040516001600160a01b038381166024830152604482018390526117e791859182169063a9059cbb906064015b604051602081830303815290604052915060e01b6020820180516001600160e01b03838183161783525050505061182b565b505050565b6040516001600160a01b0384811660248301528381166044830152606482018390526118259186918216906323b872dd906084016117b5565b50505050565b600080602060008451602086016000885af18061184e576040513d6000823e3d81fd5b50506000513d91508115611866578060011415611873565b6001600160a01b0384163b155b1561182557604051635274afe760e01b81526001600160a01b0385166004820152602401610727565b80356001600160a01b03811681146118b357600080fd5b919050565b6000806000606084860312156118cd57600080fd5b6118d68461189c565b95602085013595506040909401359392505050565b634e487b7160e01b600052602160045260246000fd5b602081016005831061192357634e487b7160e01b600052602160045260246000fd5b91905290565b60006020828403121561193b57600080fd5b5035919050565b60006020828403121561195457600080fd5b6106548261189c565b634e487b7160e01b600052601160045260246000fd5b808201808211156119865761198661195d565b92915050565b818103818111156119865761198661195d565b6000602082840312156119b157600080fd5b505191905056fea2646970667358221220759bcc03e09122adef384a68a23b78dc17b37b0f2c1ee8f768d6359b1b21059764736f6c63430008180033","linkReferences":{}},"methodIdentifiers":{"activate()":"0f15f4c0","executeAddVendor(address)":"d025314d","fund(uint256)":"ca1d209d","getActivationTime()":"adaa1399","getExpiryTime()":"25cb5bc0","getGuardian()":"a75b87d2","getOperator()":"e7f43c68","getOwner()":"893d20e8","getPendingVendorReadyAt(address)":"91702468","getPolicy()":"ce1e4626","getRollingDailySpend()":"279478ba","getSpendStats()":"0dfe0981","getState()":"1865c57d","getVendorAddTimelock()":"b9377717","isExpired()":"2f13b60c","isVendorApproved(address)":"fc34d3a6","lowerDailyVelocityCap(uint256)":"1be393b7","lowerPerTransactionCap(uint256)":"7919599b","pause()":"8456cb59","queueAddVendor(address)":"3270a63b","removeVendor(address)":"54b622c9","requestSpend(address,uint256,bytes32)":"09b32a98","revoke()":"b6549f75","setGuardian(address)":"8a0dac4a","unpause()":"3f4ba83a","withdrawRemaining()":"ee38db95"},"id":35}